:100000000C9466000C947B000C947B000C947B0099
:100010000C947B000C947B000C947B000C947B0074
:100020000C947B000C947B000C947B000C947B0064
:100030000C947B000C947B000C947B000C947B0054
:100040000C947B000C947B000C947B000C947B0044
:100050000C947B000C947B000C947B000C947B0034
:100060000C947B000C947B000C947B000C947B0024
:100070000C947B000C947B000C947B000C947B0014
:100080000C947B000C947B000C947B000C947B0004
:100090000C947B000C947B000C947B000C947B00F4
:1000A0000C947B000C947B000C947B000C947B00E4
:1000B0000C947B000C947B000C947B000C947B00D4
:1000C0000C947B000C947B000C947B0011241FBECD
:1000D000CFEFD8E0DEBFCDBF11E0A0E0B1E0EEE5AC
:1000E000F3E002C005900D92AE30B107D9F70E943F
:1000F00060010C94AD010C94000085B98BB18E7F2A
:100100008BB98BB18D7F8BB98BB184608BB98FE349
:100110009FE10197F1F700C000008BB18B7F8BB995
:10012000089588E30E947D008FE99FE00197F1F731
:1001300000C0000081E00E947D008FE99FE00197F0
:10014000F1F700C0000082E00E947D008FE99FE08F
:100150000197F1F700C0000086E00E947D008FE962
:100160009FE00197F1F700C0000080E80E947D0049
:100170008FE99FE00197F1F700C00000089585B96D
:100180008BB181608BB98BB18D7F8BB98BB1846062
:100190008BB98FE39FE10197F1F700C000008BB1AD
:1001A0008B7F8BB908950F931F93CF938C01C0E081
:1001B0000CC00E94BF002FEF81EE94E021508040E0
:1001C0009040E1F700C00000CF5FF801EC0FF11D97
:1001D00080818111EECFCF911F910F9108958823D7
:1001E00021F0813021F080E003C080E801C080EC84
:1001F000603108F4860F0E947D00089581EF82B976
:100200008FE99FE00197F1F700C00000049938C022
:10021000059938C0069938C0079938C082EF82B96D
:100220008FE99FE00197F1F700C00000049930C00A
:10023000059930C0069930C0079930C084EF82B963
:100240008FE99FE00197F1F700C00000049928C0F2
:10025000059928C0069928C0079928C088EF82B957
:100260008FE99FE00197F1F700C00000049920C0DA
:10027000059920C0069920C0079B20C084E40895FA
:1002800081E3089582E3089583E3089581E4089566
:1002900084E3089585E3089586E3089582E408954C
:1002A00087E3089588E3089589E3089583E4089532
:1002B0008AE2089580E3089583E208958EE4089524
:1002C0008FEF84B98AB99FE091B982B90E949100F9
:1002D0002FEF81EE94E0215080409040E1F700C084
:1002E00000008CE00E947D002FEF81EE94E0215011
:1002F00080409040E1F700C0000081E00E947D0056
:100300002FEF81EE94E0215080409040E1F700C053
:10031000000080E091E00E94D30080EC0E947D000C
:100320008CE00E947D0086E091E00E94D30065E0B1
:1003300080E00E94EF000E94FE008E3421F00E94B7
:10034000FE000E94BF002FEF81EE94E0215080401C
:0E0350009040E1F700C00000EACFF894FFCF24
:0E035E004B5061643D004B65795061643D0079
:00000001FF
