:100000000C9466000C9470000C9470000C947000BA
:100010000C9470000C9470000C9470000C947000A0
:100020000C9470000C9470000C9470000C94700090
:100030000C9470000C9472000C9481000C9470006D
:100040000C9470000C9470000C9470000C94700070
:100050000C9470000C9470000C9470000C94700060
:100060000C9470000C9470000C9470000C94700050
:100070000C9470000C9470000C9470000C94700040
:100080000C9470000C9470000C9470000C94700030
:100090000C9470000C9470000C9470000C94700020
:1000A0000C9470000C9470000C9470000C94700010
:1000B0000C9470000C9470000C9470000C94700000
:1000C0000C9470000C9470000C94700011241FBEEE
:1000D000CFEFD8E0DEBFCDBF0E94B4000C94D800B3
:1000E0000C9400001F920F920FB60F9211248F9361
:1000F00085B1816085B98F910F900FBE0F901F90D1
:1001000018951F920F920FB60F9211248F9385B1FD
:100110008E7F85B98F910F900FBE0F901F9018950D
:100120009C01EFE6F0E0908196609083E1E8F0E0DA
:1001300090819160908390819860908325363105FD
:1001400010F024E630E080E197E2909389008093FC
:10015000880044E6429FC001439F900D1124909374
:100160008B0080938A00089584B1816084B978946B
:10017000C1E0D0E00AC0CE010E9490008FE39CE96C
:100180000197F1F700C000002196C436D10598F31D
:10019000C3E6D0E00AC0CE010E9490008FE39CE944
:1001A0000197F1F700C0000021972097A1F7E0CF59
:0401B000F894FFCFF1
:00000001FF
