S00F00004144435F4C43442E737265631B
S11300000C9466000C947B000C947B000C947B0095
S11300100C947B000C947B000C947B000C947B0070
S11300200C947B000C947B000C947B000C947B0060
S11300300C947B000C947B000C947B000C947B0050
S11300400C947B000C947B000C947B000C947B0040
S11300500C947B000C947B000C947B000C947B0030
S11300600C947B000C947B000C947B000C947B0020
S11300700C947B000C947B000C947B000C947B0010
S11300800C947B000C947B000C947B000C947B0000
S11300900C947B000C947B000C947B000C947B00F0
S11300A00C947B000C947B000C947B000C947B00E0
S11300B00C947B000C947B000C947B000C947B00D0
S11300C00C947B000C947B000C947B0011241FBEC9
S11300D0CFEFD8E0DEBFCDBF11E0A0E0B1E0E6EDA8
S11300E0F3E002C005900D92AE30B107D9F70E943B
S11300F025010C94E9010C94000085B98BB18E7F25
S11301008BB98BB18D7F8BB98BB184608BB98FE345
S11301109FE10197F1F700C000008BB18B7F8BB991
S1130120089588E30E947D008FE99FE00197F1F72D
S113013000C0000081E00E947D008FE99FE00197EC
S1130140F1F700C0000082E00E947D008FE99FE08B
S11301500197F1F700C0000086E00E947D008FE95E
S11301609FE00197F1F700C0000080E80E947D0045
S11301708FE99FE00197F1F700C00000089585B969
S11301808BB181608BB98BB18D7F8BB98BB184605E
S11301908BB98FE39FE10197F1F700C000008BB1A9
S11301A08B7F8BB908950F931F93CF938C01C0E07D
S11301B00CC00E94BF002FEF81EE94E021508040DC
S11301C09040E1F700C00000CF5FF801EC0FF11D93
S11301D080818111EECFCF911F910F9108958823D3
S11301E021F0813021F080E003C080E801C080EC80
S11301F0603108F4860F0E947D000895ECE7F0E07A
S1130200808180648083EAE7F0E080818068808375
S11302108081806480838081876080830895ECE797
S1130220F0E09081907F90839081892B8083EAE72E
S1130230F0E080818064808380917A0086FDFCCF29
S113024080917800909179000895CF93DF9300D046
S113025000D0CDB7DEB78FEF84B98AB90E94910080
S11302600E94FE002FEF81EE94E0215080409040E8
S1130270E1F700C000008CE00E947D002FEF81EECA
S113028094E0215080409040E1F700C0000081E0FC
S11302900E947D002FEF81EE94E021508040904039
S11302A0E1F700C0000080E091E00E94D30080EC00
S11302B00E947D008CE00E947D0086E091E00E9417
S11302C0D30019821A821B821C8280E2898380E017
S11302D00E940F018C0180E090E009C0E1E0F0E0B1
S11302E0EC0FFD1FE80FF91F20E2208301968430F4
S11302F09105A4F368E081E00E94EF004AE050E039
S1130300BE016F5F7F4FC8010E94A90100E010E0A9
S113031013C0E1E0F0E0EC0FFD1FE00FF11F80815E
S113032090ED980F9A3020F080E20E94BF0002C046
S11303300E94BF000F5F1F4F0430110554F32FEFCD
S113034083EC99E0215080409040E1F700C0000028
S1130350BECF4532510520F4423010F00C94B40164
S1130360FB011082CB010895BB274A3031F4992355
S113037022F4BDE2909581959F4F0C94C001BB2758
S1130380FB015527AA27880F991FAA1FA41710F04D
S1130390A41B83955051B9F7A05DAA3308F0A95D59
S11303A0A193009779F7B111B1931192CB010C94F9
S11303B0D901DC01FC01672F71917723E1F73297B2
S11303C004C07C916D9370836291AE17BF07C8F32C
S10903D00895F894FFCF2C
S11103D64B5061643D0046696E616C203D0031
S9030000FC
