:100000000C9466000C9483000C9483000C94830081
:100010000C9483000C9483000C9483000C94830054
:100020000C9483000C9483000C9483000C94830044
:100030000C9483000C9483000C9483000C94830034
:100040000C9483000C9483000C9483000C94830024
:100050000C9483000C9483000C9483000C94830014
:100060000C9483000C9483000C9483000C94830004
:100070000C9483000C9483000C9483000C948300F4
:100080000C9483000C9483000C9483000C948300E4
:100090000C9483000C9483000C9483000C948300D4
:1000A0000C9483000C9483000C9483000C948300C4
:1000B0000C9483000C9483000C9483000C948300B4
:1000C0000C9483000C9483000C94830011241FBEB5
:1000D000CFEFD8E0DEBFCDBF11E0A0E0B1E0E6E6B3
:1000E000F5E002C005900D92AE30B107D9F721E0DE
:1000F000AEE0B1E001C01D92A031B207E1F70E946D
:10010000E8010C94B1020C94000085B98BB18E7F8C
:100110008BB98BB18D7F8BB98BB184608BB98FE339
:100120009FE10197F1F700C000008BB18B7F8BB985
:10013000089588E30E9485008FE99FE00197F1F719
:1001400000C0000081E00E9485008FE99FE00197D8
:10015000F1F700C0000082E00E9485008FE99FE077
:100160000197F1F700C0000086E00E9485008FE94A
:100170009FE00197F1F700C0000080E80E94850031
:100180008FE99FE00197F1F700C00000089585B95D
:100190008BB181608BB98BB18D7F8BB98BB1846052
:1001A0008BB98FE39FE10197F1F700C000008BB19D
:1001B0008B7F8BB908950F931F93CF938C01C0E071
:1001C0000CC00E94C7002FEF81EE94E021508040C8
:1001D0009040E1F700C00000CF5FF801EC0FF11D87
:1001E00080818111EECFCF911F910F9108958823C7
:1001F00021F0813021F080E003C080E801C080EC74
:10020000603108F4860F0E948500089581EF82B95D
:100210008FE99FE00197F1F700C0000004993BC00F
:1002200005993BC006993BC007993BC082EF82B954
:100230008FE99FE00197F1F700C00000049933C0F7
:10024000059933C0069933C0079933C084EF82B94A
:100250008FE99FE00197F1F700C0000004992BC0DF
:1002600005992BC006992BC007992BC088EF82B93E
:100270008FE99FE00197F1F700C0000090B1892F4E
:10028000807194FD20C0059923C006991EC0079B6C
:100290001EC082E3089581E0089582E0089583E01E
:1002A000089581E4089584E0089585E0089586E046
:1002B000089582E4089587E0089588E0089589E02C
:1002C000089583E408958AE2089583E2089584E618
:1002D00008950F931F93CF93DF9300D000D0CDB735
:1002E000DEB719821A821B821C8280E289830E94F7
:1002F00006018A3008F05FC080910E0190910F01D5
:100300009C01220F331F880F991F880F991F880F98
:10031000991F820F931F90930F0180930E010E94EB
:10032000060120910E0130910F01A901480F511DC6
:1003300050930F0140930E014F3F510529F020F0DB
:1003400010920F0110920E0180E090E009C0E1E0F0
:10035000F0E0EC0FFD1FE80FF91F20E2208301966B
:1003600084309105A4F365E080E00E94F7004AE044
:1003700050E0BE016F5F7F4F80910E0190910F01A1
:100380000E94710200E010E013C0E1E0F0E0EC0F29
:10039000FD1FE00FF11F808190ED980F9A3020F043
:1003A00080E20E94C70002C00E94C7000F5F1F4F7B
:1003B0000430110554F380910E0190910F010F90BC
:1003C0000F900F900F90DF91CF911F910F91089593
:1003D000CF93DF9300D000D0CDB7DEB78FEF84B9D5
:1003E0008AB99FE091B982B90E9499002FEF81EEFE
:1003F00094E0215080409040E1F700C000008CE084
:100400000E9485002FEF81EE94E0215080409040C3
:10041000E1F700C0000081E00E9485002FEF81EE2F
:1004200094E0215080409040E1F700C0000080E05F
:1004300091E00E94DB0080EC0E9485008CE00E942D
:10044000850086E091E00E94DB0019821A821B82FF
:100450001C8280E289832FEF83EC99E02150804059
:100460009040E1F700C000000E9469018C010E94E9
:100470000601823381F70AC0E1E0F0E0EC0FFD1FD6
:10048000E80FF91F20E22083019602C080E090E08F
:10049000843091058CF368E081E00E94F7004AE027
:1004A00050E0BE016F5F7F4FC8010E94710200E003
:1004B00010E013C0E1E0F0E0EC0FFD1FE00FF11FD2
:1004C000808190ED980F9A3020F080E20E94C70062
:1004D00002C00E94C7000F5F1F4F0430110554F384
:1004E000BACF4532510520F4423010F00C947C0212
:1004F000FB011082CB010895BB274A3031F49923C8
:1005000022F4BDE2909581959F4F0C948802BB2701
:10051000FB015527AA27880F991FAA1FA41710F0BF
:10052000A41B83955051B9F7A05DAA3308F0A95DCB
:10053000A193009779F7B111B1931192CB010C946B
:10054000A102DC01FC01672F71917723E1F732975B
:1005500004C07C916D9370836291AE17BF07C8F39E
:060560000895F894FFCF9E
:0E0566004B5061643D0046696E616C203D00A3
:00000001FF
