S02800004C45445F426C696E6B696E675F7573696E675F646566696E655F746F67676C652E737265636A
S11300000C9466000C9470000C9470000C947000B6
S11300100C9470000C9470000C9470000C9470009C
S11300200C9470000C9470000C9470000C9470008C
S11300300C9470000C9470000C9470000C9470007C
S11300400C9470000C9470000C9470000C9470006C
S11300500C9470000C9470000C9470000C9470005C
S11300600C9470000C9470000C9470000C9470004C
S11300700C9470000C9470000C9470000C9470003C
S11300800C9470000C9470000C9470000C9470002C
S11300900C9470000C9470000C9470000C9470001C
S11300A00C9470000C9470000C9470000C9470000C
S11300B00C9470000C9470000C9470000C947000FC
S11300C00C9470000C9470000C94700011241FBEEA
S11300D0CFEFD8E0DEBFCDBF0E9472000C948E003B
S11300E00C9400008FEF8AB91BB889B1806289B97A
S11300F02FEF89E698E1215080409040E1F700C05D
S1130100000089B1806289B92FEF89E698E1215016
S113011080409040E1F700C00000E7CFF894FFCFA3
S9030000FC
