S00F000050726F6A6563742E737265633E
S11300000C9466000C947B000C947B000C947B0095
S11300100C947B000C947B000C947B000C947D006E
S11300200C947B000C947B000C947B000C947B0060
S11300300C947B000C947B000C947B000C947B0050
S11300400C947B000C947B000C947B000C947B0040
S11300500C947B000C947B000C947B000C947B0030
S11300600C947B000C947B000C947B000C947B0020
S11300700C947B000C947B000C947B000C947B0010
S11300800C947B000C947B000C947B000C947B0000
S11300900C947B000C947B000C947B000C947B00F0
S11300A00C947B000C947B000C947B000C947B00E0
S11300B00C947B000C947B000C947B000C947B00D0
S11300C00C947B000C947B000C947B0011241FBEC9
S11300D0CFEFD8E0DEBFCDBF11E0A0E0B1E0EEE0AD
S11300E0F5E002C005900D92A831B107D9F70E943E
S11300F058010C9485020C9400001F920F920FB6C5
S11301000F9211242F938F939F930CC089B1806415
S113011089B92FEF83EC99E0215080409040E1F7BA
S113012000C000004F99F2CF9F918F912F910F90B3
S11301300FBE0F901F901895ECE7F0E0808180646B
S11301408083EAE7F0E08081806880838081806436
S113015080838081876080830895ECE7F0E090815C
S1130160907F90839081892B8083EAE7F0E08081FF
S11301708064808380917A0086FDFCCF8091780032
S1130180909179000895E0E8F0E0808180628083B6
S1130190808183608083E1E8F0E0808188608083EF
S11301A0808181608083808180618083089585B9A6
S11301B08BB18E7F8BB98BB18D7F8BB98BB1846002
S11301C08BB98FE39FE10197F1F700C000008BB179
S11301D08B7F8BB9089588E30E94D7008FE99FE055
S11301E00197F1F700C0000081E00E94D7008FE979
S11301F09FE00197F1F700C0000082E00E94D70061
S11302008FE99FE00197F1F700C0000086E00E94AB
S1130210D7008FE99FE00197F1F700C0000080E864
S11302200E94D7008FE99FE00197F1F700C000001A
S1130230089585B98BB181608BB98BB18D7F8BB9F2
S11302408BB184608BB98FE39FE10197F1F700C014
S113025000008BB18B7F8BB908950F931F93CF93BD
S11302608C01C0E00CC00E9419012FEF81EE94E0D4
S1130270215080409040E1F700C00000CF5FF801BA
S1130280EC0FF11D80818111EECFCF911F910F9161
S11302900895882321F0813021F080E003C080E8B4
S11302A001C080EC603108F4860F0E94D7000895E5
S11302B0CF93DF9300D000D0CDB7DEB78FEF84B9F2
S11302C08FE78AB9E3E7F0E0808180688083E8E61D
S11302D0F0E080818860808378940E94EB000E9423
S11302E09C000E94C30080E293E090938900809375
S11302F0880010928B0010928A002FEF81EE94E018
S1130300215080409040E1F700C000008CE00E9442
S1130310D7002FEF81EE94E0215080409040E1F728
S113032000C0000081E00E94D7002FEF81EE94E02E
S1130330215080409040E1F700C0000080E091E04F
S11303400E942D0180EC0E94D7008FE99FE0019765
S1130350F1F700C000008CE00E94D7008FE99FE015
S11303600197F1F700C0000087E091E00E942D01A1
S113037019821A821B821C8280E2898380E00E9497
S1130380AD008C0180E00E94AD00A0918800B09186
S113039089009C010E9436022FEF33E040E050E0D8
S11303A00E94140230938B0020938A0080E090E036
S11303B009C0E1E0F0E0EC0FFD1FE80FF91F20E2B7
S11303C02083019684309105A4F368E080E00E94C4
S11303D049014AE050E0BE016F5F7F4FC8010E94AF
S11303E0450200E010E013C0E1E0F0E0EC0FFD1F77
S11303F0E00FF11F808190ED980F9A3020F080E299
S11304000E94190102C00E9419010F5F1F4F04309E
S1130410110554F39FEF23EC89E091502040804074
S1130420E1F700C00000AACFA1E21A2EAA1BBB1B51
S1130430FD010DC0AA1FBB1FEE1FFF1FA217B307AC
S1130440E407F50720F0A21BB30BE40BF50B661FC2
S1130450771F881F991F1A9469F760957095809586
S113046090959B01AC01BD01CF010895A29FB001FD
S1130470B39FC001A39F700D811D1124911DB29FD4
S1130480700D811D1124911D08954532510520F4EC
S1130490423010F00C945002FB011082CB010895FD
S11304A0BB274A3031F4992322F4BDE2909581951B
S11304B09F4F0C945C02BB27FB015527AA27880F8A
S11304C0991FAA1FA41710F0A41B83955051B9F7C4
S11304D0A05DAA3308F0A95DA193009779F7B11143
S11304E0B1931192CB010C947502DC01FC01672FCE
S11304F071917723E1F7329704C07C916D937083F7
S11105006291AE17BF07C8F30895F894FFCFB9
S113050E41444330203D00204962726168696D2088
S10B051E486167676167000092
S9030000FC
