:100000000C9466000C947B000C947B000C947B0099
:100010000C947B000C947B000C947B000C947B0074
:100020000C947B000C947B000C947B000C947B0064
:100030000C947B000C947B000C947B000C947B0054
:100040000C947B000C947B000C947B000C947B0044
:100050000C947B000C947B000C947B000C947B0034
:100060000C947B000C947B000C947B000C947B0024
:100070000C947B000C947B000C947B000C947B0014
:100080000C947B000C947B000C947B000C947B0004
:100090000C947B000C947B000C947B000C947B00F4
:1000A0000C947B000C947B000C947B000C947B00E4
:1000B0000C947B000C947B000C947B000C947B00D4
:1000C0000C947B000C947B000C947B0011241FBECD
:1000D000CFEFD8E0DEBFCDBF11E0A0E0B1E0EEEEA3
:1000E000F3E002C005900D92AC30B107D9F70E9441
:1000F000FE000C94F5010C94000085B98BB18E7F45
:100100008BB98BB18D7F8BB98BB184608BB98FE349
:100110009FE10197F1F700C000008BB18B7F8BB995
:10012000089588E30E947D008FE99FE00197F1F731
:1001300000C0000081E00E947D008FE99FE00197F0
:10014000F1F700C0000082E00E947D008FE99FE08F
:100150000197F1F700C0000086E00E947D008FE962
:100160009FE00197F1F700C0000080E80E947D0049
:100170008FE99FE00197F1F700C00000089585B96D
:100180008BB181608BB98BB18D7F8BB98BB1846062
:100190008BB98FE39FE10197F1F700C000008BB1AD
:1001A0008B7F8BB908950F931F93CF938C01C0E081
:1001B0000CC00E94BF002FEF81EE94E021508040E0
:1001C0009040E1F700C00000CF5FF801EC0FF11D97
:1001D00080818111EECFCF911F910F9108958823D7
:1001E00021F0813021F080E003C080E801C080EC84
:1001F000603108F4860F0E947D000895CF93DF934D
:1002000000D01F92CDB7DEB78FEF84B98AB911B88D
:1002100082B90E9491002FEF81EE94E0215080403E
:100220009040E1F700C000008CE00E947D002FEFBD
:1002300081EE94E0215080409040E1F700C0000042
:1002400081E00E947D002FEF81EE94E021508040FC
:100250009040E1F700C0000080E091E00E94D300F0
:1002600080EC0E947D008CE00E947D0086E091E0A1
:100270000E94D30019821A821B8280E2898380E067
:1002800090E009C0E1E0F0E0EC0FFD1FE80FF91F7E
:1002900020E22083019683309105A4F365E080E09D
:1002A0000E94EF0080B14AE050E0BE016F5F7F4FD7
:1002B00090E00E94B50100E010E013C0E1E0F0E042
:1002C000EC0FFD1FE00FF11F808190ED980F9A3029
:1002D00020F080E20E94BF0002C00E94BF000F5FBA
:1002E0001F4F0330110554F380E090E009C0E1E0B6
:1002F000F0E0EC0FFD1FE80FF91F20E220830196CC
:1003000083309105A4F364E081E00E94EF0080B1A6
:1003100090E04AE050E0BE016F5F7F4F8C599F4FE5
:100320000E94B50100E010E013C0E1E0F0E0EC0F46
:10033000FD1FE00FF11F808190ED980F9A3020F0A3
:1003400080E20E94BF0002C00E94BF000F5F1F4FEB
:100350000330110554F32FEF84E39CE021508040DB
:100360009040E1F700C000008ACF4532510520F4EB
:10037000423010F00C94C001FB011082CB010895B3
:10038000BB274A3031F4992322F4BDE29095819540
:100390009F4F0C94CC01BB27FB015527AA27880F40
:1003A000991FAA1FA41710F0A41B83955051B9F7E9
:1003B000A05DAA3308F0A95DA193009779F7B11168
:1003C000B1931192CB010C94E501DC01FC01672F84
:1003D00071917723E1F7329704C07C916D9370831C
:0E03E0006291AE17BF07C8F30895F894FFCFDF
:0C03EE0054454D503D005350443D00006C
:00000001FF
