:100000000C9466000C9470000C9470000C947000BA
:100010000C9470000C9470000C9470000C9472009E
:100020000C9470000C9470000C9470000C94700090
:100030000C9470000C9470000C9470000C94700080
:100040000C9470000C9470000C9470000C94700070
:100050000C9470000C9470000C9470000C94700060
:100060000C9470000C9470000C9470000C94700050
:100070000C9470000C9470000C9470000C94700040
:100080000C9470000C9470000C9470000C94700030
:100090000C9470000C9470000C9470000C94700020
:1000A0000C9470000C9470000C9470000C94700010
:1000B0000C9470000C9470000C9470000C94700000
:1000C0000C9470000C9470000C94700011241FBEEE
:1000D000CFEFD8E0DEBFCDBF0E94A0000C94C800D7
:1000E0000C9400001F920F920FB60F9211242F93C1
:1000F0008F939F9385B18F7785B918C085B1836041
:1001000085B92FEF83EC99E0215080409040E1F7D2
:1001100000C0000085B18C7F85B92FEF83EC99E09A
:10012000215080409040E1F700C000004F99E6CF99
:100130009F918F912F910F900FBE0F901F90189548
:100140008FEF84B91AB88BB9E3E7F0E0808180685B
:100150008083E8E6F0E0808188608083789485B1D0
:10016000806885B92FEF83ED90E321508040904067
:10017000E1F700C0000085B18F7785B92FEF83EDDF
:1001800090E3215080409040E1F700C00000E7CFAD
:04019000F894FFCF11
:00000001FF
