:100000000C9466000C9470000C9470000C947000BA
:100010000C9470000C9470000C9470000C947000A0
:100020000C9470000C9470000C9470000C94700090
:100030000C9470000C9472000C9470000C9470007E
:100040000C9470000C9470000C9470000C94700070
:100050000C9470000C9470000C9470000C94700060
:100060000C9470000C9470000C9470000C94700050
:100070000C9470000C9470000C9470000C94700040
:100080000C9470000C9470000C9470000C94700030
:100090000C9470000C9470000C9470000C94700020
:1000A0000C9470000C9470000C9470000C94700010
:1000B0000C9470000C9470000C9470000C94700000
:1000C0000C9470000C9470000C94700011241FBEEE
:1000D000CFEFD8E0DEBFCDBF0E94A2000C94CF00CE
:1000E0000C9400001F920F920FB60F9211248F9361
:1000F00083B1816083B98F910F900FBE0F901F90D5
:100100001895E1E8F0E09081946090839081986088
:100110009083EFE6F0E090819260908320E030E001
:10012000382F220F331F40E050E060E074E284EF8C
:1001300090E00E94AD002150310930938900209356
:10014000880008958FEF84B985B1816085B978946E
:1001500084E090E00E948100FFCFA1E21A2EAA1B4A
:10016000BB1BFD010DC0AA1FBB1FEE1FFF1FA21767
:10017000B307E407F50720F0A21BB30BE40BF50B64
:10018000661F771F881F991F1A9469F760957095ED
:10019000809590959B01AC01BD01CF010895F89425
:0201A000FFCF8F
:00000001FF
