:100000000C9466000C9470000C9470000C947000BA
:100010000C9470000C9470000C9470000C947000A0
:100020000C9470000C9470000C9470000C94700090
:100030000C9470000C949C000C94AB000C94700019
:100040000C9472000C9470000C9470000C9470006E
:100050000C9470000C9470000C9470000C94700060
:100060000C9470000C9470000C9470000C94700050
:100070000C9470000C9470000C9470000C94700040
:100080000C9470000C9470000C9470000C94700030
:100090000C9470000C9470000C9470000C94700020
:1000A0000C9470000C9470000C9470000C94700010
:1000B0000C9470000C9470000C9470000C94700000
:1000C0000C9470000C9470000C94700011241FBEEE
:1000D000CFEFD8E0DEBFCDBF0E94E4000C94360124
:1000E0000C9400001F920F920FB60F9211242F93C1
:1000F0003F938F939F93EF93FF93209188003091CC
:100100008900EAE8F0E08081918101969183808303
:10011000808191818217930720F010928B001092BA
:100120008A00FF91EF919F918F913F912F910F90B6
:100130000FBE0F901F9018951F920F920FB60F923F
:1001400011248F9385B1816085B98F910F900FBE77
:100150000F901F9018951F920F920FB60F921124B7
:100160008F9385B18E7F85B98F910F900FBE0F90C1
:100170001F901895EFE6F0E0808186608083E1E8CB
:10018000F0E0808181608083808188608083089531
:1001900094B5926094BD95B5956095BDEEE6F0E09E
:1001A000908192609083A82FB0E020E034E244EF89
:1001B00050E00E941C0120E030EA40E050E00E9444
:1001C000FA00215027BD089584B1816084B980E28E
:1001D00093E0909389008093880084E190E090936D
:1001E0008B0080938A0078940E94BA0084E00E9479
:1001F000C800FFCFA1E21A2EAA1BBB1BFD010DC038
:10020000AA1FBB1FEE1FFF1FA217B307E407F507C6
:1002100020F0A21BB30BE40BF50B661F771F881FA2
:10022000991F1A9469F760957095809590959B0138
:10023000AC01BD01CF0108950E942701A59F900D3B
:10024000B49F900DA49F800D911D11240895A29F2D
:10025000B001B39FC001A39F700D811D1124911D9A
:10026000B29F700D811D1124911D0895F894FFCF48
:00000001FF
