S01D00004243445F375F5365676D656E745F446973706C61792E7372656341
S11300000C946F000C9479000C9479000C94790092
S11300100C9479000C9479000C9479000C94790078
S11300200C9479000C9479000C9479000C94790068
S11300300C9479000C9479000C9479000C94790058
S11300400C9479000C9479000C9479000C94790048
S11300500C9479000C9479000C9479000C94790038
S11300600C9479000C9479000C9479000C94790028
S11300700C9479000C9479000C9479000C94790018
S11300800C9479000C9479000C9479000C94790008
S11300900C9479000C9479000C9479000C947900F8
S11300A00C9479000C9479000C9479000C947900E8
S11300B00C9479000C9479000C9479000C947900D8
S11300C00C9479000C9479000C9479008C008F00C6
S11300D09200950098009B009E00A100A4001124AA
S11300E01FBECFEFD8E0DEBFCDBF0E947B000C94D3
S11300F0B8000C9400008FEF8AB91BB814B885B906
S1130100E3B18E2F90E0FC013197E930F105F8F46A
S1130110EA59FF4F0C94B20081E08BB919C082E018
S11301208BB916C083E08BB913C084E08BB910C0BF
S113013085E08BB90DC086E08BB90AC087E08BB926
S113014007C088E08BB904C089E08BB901C01BB833
S11301502FEF81EE94E0215080409040E1F700C001
S11301600000CECFEE0FFF1F0590F491E02D09940F
S1070170F894FFCF2D
S9030000FC
