S00F000050574D5F4144432E73726563FA
S11300000C9466000C9470000C9470000C947000B6
S11300100C9470000C9470000C9470000C9470009C
S11300200C9470000C9470000C9470000C9470008C
S11300300C9470000C9470000C9470000C9470007C
S11300400C9470000C9470000C9470000C9470006C
S11300500C9470000C9470000C9470000C9470005C
S11300600C9470000C9470000C9470000C9470004C
S11300700C9470000C9470000C9470000C9470003C
S11300800C9470000C9470000C9470000C9470002C
S11300900C9470000C9470000C9470000C9470001C
S11300A00C9470000C9470000C9470000C9470000C
S11300B00C9470000C9470000C9470000C947000FC
S11300C00C9470000C9470000C94700011241FBEEA
S11300D0CFEFD8E0DEBFCDBF0E94AD000C940B0182
S11300E00C940000E0E8F0E08081806280838081ED
S11300F083608083E1E8F0E0808188608083808190
S1130100816080838081806180830895ECE7F0E0E2
S1130110808180648083EAE7F0E080818068808366
S11301208081806480838081876080830895ECE788
S1130130F0E09081907F90839081892B8083EAE71F
S1130140F0E080818064808380917A0086FDFCCF1A
S1130150809178009091790008958AB180618AB97C
S11301600E9472000E94860080E293E090938900CE
S11301708093880010928B0010928A0080E00E9485
S113018097009C01A0E2B3E00E94FC002FEF33E053
S113019040E050E00E94DA0030938B0020938A0004
S11301A02FEF83EC99E0215080409040E1F700C0AC
S11301B00000E4CFA1E21A2EAA1BBB1BFD010DC057
S11301C0AA1FBB1FEE1FFF1FA217B307E407F50703
S11301D020F0A21BB30BE40BF50B661F771F881FDF
S11301E0991F1A9469F760957095809590959B0175
S11301F0AC01BD01CF010895A29FB001B39FC0011E
S1130200A39F700D811D1124911DB29F700D811D3E
S10D02101124911D0895F894FFCF06
S9030000FC
